:020000040800F2
:10000000780500209D0100089B1B0008611B00086B
:10001000991B0008110400084D2200080000000090
:10002000000000000000000000000000811C00082B
:100030005D050008000000009D1B0008FD1C000875
:10004000B7010008B7010008B7010008B7010008B0
:10005000B7010008B7010008B7010008B7010008A0
:10006000B7010008B7010008B7010008B701000890
:10007000B7010008B7010008B7010008B701000880
:10008000B7010008AD040008B7010008B701000877
:1000900015040008B7010008B7010008B7010008FF
:1000A000B7010008B7010008B7010008B701000850
:1000B000B7010008B7010008B7010008B701000840
:1000C000B7010008B7010008B7010008B701000830
:1000D000B7010008B701000841220008B701000875
:1000E000B7010008B7010008B7010008B701000810
:1000F000B7010008B7010008B7010008B701000800
:10010000B7010008B7010008B7010008B7010008EF
:10011000B7010008B7010008B7010008B7010008DF
:10012000B7010008B7010008B7010008B7010008CF
:10013000B7010008B7010008B7010008B7010008BF
:10014000B7010008B7010008B7010008B7010008AF
:10015000B7010008B7010008B7010008B70100089F
:10016000B7010008B7010008B7010008B70100088F
:10017000B7010008B7010008B7010008000000003F
:10018000B7010008B7010008DFF80CD000F020F933
:10019000004800472D2700087805002006488047C2
:1001A00006480047FEE7FEE7FEE7FEE7FEE7FEE75C
:1001B000FEE7FEE7FEE7FEE7851D0008890100086F
:1001C0002DE9F05F0546002092469B46884606468C
:1001D000814640241BE0284641464746224600F01F
:1001E00092F853465A46C01A914110D31146184608
:1001F000224600F079F82D1A67EB01084F46224697
:100200000120002100F070F817EB00094E41201E7C
:10021000A4F10104DFDC484631462A464346BDE8E6
:10022000F09FD2B201E000F8012B491EFBD27047CB
:100230000022F6E710B513460A4604461946FFF7B2
:10024000F0FF204610BD10B5044604E00B7800F81E
:10025000013B03B1491C521EF8D2204610BD2DE9C6
:10026000F04791460F4680460446002614F8015B8D
:100270002DB100F059F80068405DC007F6D12B2D74
:1002800002D02D2D18D0641E4A463946204600F073
:100290004FF827B13968A14201D1C7F80080710534
:1002A0004FF002040BD54042002803DD01F0F4FFBB
:1002B0000460A007BDE8F08746F48066E4E7002804
:1002C000F8DA01F0E9FF04606FF00040F2E770B582
:1002D000064601F0E1FF046805460A220021304687
:1002E000FFF7BDFF2C6070BD202A04DB203A00FA26
:1002F00002F1002070479140C2F1200320FA03F37D
:10030000194390407047202A04DB203A21FA02F07A
:100310000021704721FA02F3D040C2F1200291403F
:1003200008431946704700000048704760290008DC
:100330002DE9F05F82460078002715468B460AF1CA
:100340000104B946302801D09DB113E014F8010B27
:100350000127782803D0582801D045B10AE00DB113
:10036000102D07D10027102514F8010B02E00825F5
:1003700000E00A250026B0460EE005FB080005FB5C
:1003800006F1012701EB10461FFA80F8B6F5803F11
:1003900000D3B94614F8010B294600F02BF80028C9
:1003A000EBDABBF1000F05D00FB1641E00E054463C
:1003B000CBF80040B9F1000F06D001F06DFF02212B
:1003C0000160C81EBDE8F09F48EA0640FAE7000059
:1003D000064C074D06E0E06840F0010394E8070092
:1003E00098471034AC42F6D3FFF7D2FE64290008D8
:1003F000842900083A2800D2303820F02002412A0F
:1004000001D3A2F13700884201D34FF0FF3070478B
:10041000FEE70000014800F014BA00003800002098
:1004200000F01F0001228240054800290068D0F832
:100430001C1201D0114300E09143C0F81C12704718
:100440003800002000B58BB00121002205910492F4
:10045000089103685B01009343685B010193836823
:100460005B010293C068CDE9061240010390694622
:10047000024800F0EBF80BB000BD0000380000208F
:1004800000B58BB00020202105900890CDE9000137
:10049000029104900690039107906946024800F08B
:1004A000D5F80BB000BD000038000020014800F076
:1004B00039BC00001801002001681823CAB2103AA4
:1004C000B2FBF3F2054B6FF30901032A9B5CC36592
:1004D00000D9091D8165084670470000BC28000846
:1004E00010B5014600208B698A6A4FF0C07453B181
:1004F000B3F5005F15D072B1012A0CD0022A0AD0E0
:10050000032A09D104E01AB1012A06D0022A03D134
:10051000C96AC90100D5012010BDC96AA142FAD03B
:1005200010BD002AF7D0012AF2D0022AF3D0032A04
:10053000F3D010BD30B50468256825F4802525600A
:10054000046863608368402B036803D09960006887
:10055000C26030BD9A600068C16030BD70477047AE
:1005600090F82020012A07D0022A05D0416A41F4E0
:100570008021416201207047006842690A4342615C
:1005800000207047F0B590F820500468A468012D51
:1005900005D0022D03D0416A41F4802153E014F0CC
:1005A000406F01D1E5004BD5C4F30164022C03D99F
:1005B000416A41F4000146E00125A5401D608D68B7
:1005C0004FF4C0739DB1CE6835434E6845EAC60509
:1005D000066803EB0417F5514FF4C275076805EB85
:1005E00004150E697E51097D012905D009E00E88A8
:1005F000CD6845EA4655EBE701684E5946F48076EA
:100600004E511179D2F805504FF4C67641EA0525CE
:10061000016806EB04168D511178D2F801204FF4D1
:10062000C47541EA0221026805EB041551510068C6
:1006300003EB0411425842F0010242500020F0BD89
:10064000416A41F4001141620120F0BD10B590F8FB
:100650002020012A07D0022A05D0416A41F48021D6
:100660004162012010BD3B48D0F8002242F0010257
:10067000C0F80022D0F8002222F47C52C0F80022F8
:10068000D0F800224B6A42EA0322C0F800220A7D19
:1006900002F01F0301229A40D0F81C329343C0F8A5
:1006A0001C32CB69B3B9D0F80C329343C0F80C328A
:1006B0008C894B6864F31F434C6900EBC404C4F895
:1006C00040320C890B6864F31F434C6900EBC4048F
:1006D000C4F84432CB69012B16D1D0F80C32134345
:1006E000C0F80C320C884B6864F31F434C6900EB74
:1006F000C404C4F840320C89CB6864F31F434C69CE
:1007000000EBC404C4F844328B69002BD0F80432E7
:100710000ED01343C0F804320B69002BD0F814320A
:1007200008D01343C0F81432096A012904D008E044
:100730009343EFE79343F5E7D0F81C121143C0F859
:100740001C12D0F8001221F00101C0F800120020A4
:1007500010BD000000640040704730B590F82040A4
:10076000012C05D0022C03D0416A41F480215DE0C8
:100770000468002955D02469A40754D04FF4D874D4
:10078000056804EB01142D5915F004059560056802
:100790002D594ED0ED08556005682C59C4F340041E
:1007A000D4604FF4DA74056804EB01142D5905F098
:1007B0000F05156105682D59C5F307259561056875
:1007C0002C59240C54614FF4DC72046802EB0112C2
:1007D000A4581C700468A458240A5C700468A458C7
:1007E000240C9C700468A258120EDA704FF4DE726A
:1007F000046802EB0112A4581C710468A458240A6E
:100800005C710468A458240C9C710468A258120EF0
:10081000DA71006881B1016941F0200101610020B5
:1008200030BDE468A8E7416A41F40011416201204B
:1008300030BD6D0D1560AFE7C16841F02001C160AA
:10084000EDE72DE9F05F0546006800244669D0F821
:1008500004908768D0F80CB0D0F810A0D0F81880B9
:10086000F10748D0F90714D001218160B80703D5FA
:10087000284600F03EFA0CE0780702D54FF40064F9
:1008800007E0380702D54FF4805402E0284600F014
:100890002FFAF80516D529684FF480708860B805DE
:1008A00003D5284600F027FA0CE0780502D544F479
:1008B000005407E0380502D544F4804402E028469D
:1008C00000F018FAF80316D529684FF480308860D4
:1008D000B80303D5284600F010FA0CE0780302D5DF
:1008E00044F4004407E0380302D544F4803402E0C5
:1008F000284600F001FA300707D55FEACB6004D53F
:100900002968102044F40074C86070074FF008078D
:1009100007D55FEA0B7004D52868C760284600F049
:1009200059F9B00706D52868C068800702D0284664
:1009300000F06CF9700607D55FEACA6004D5296833
:10094000102044F480640861B00607D55FEA0A709D
:1009500004D528680761284600F06AF9F00606D534
:1009600028680069800702D0284600F062F9B003C9
:1009700008D55FEAC96005D5296810204860284677
:1009800000F058F9F00307D55FEA097004D528682C
:100990004760284600F0B2F9300446D55FEA497056
:1009A00040D5F00504D55FEAC87001D044F00104D9
:1009B000B00504D55FEA887001D544F002047005E3
:1009C00004D55FEA487001D544F00404300529D508
:1009D00018F0700F26D008F07000402815D006DC03
:1009E000102809D020280AD0302816D10AE0502833
:1009F0000ED0602811D10EE044F008040DE044F060
:100A000010040AE044F0200407E044F0400404E04D
:100A100044F0800401E044F480742868816921F086
:100A200070018161296804204860002C05D0686A43
:100A3000204368622846FFF78FFEBDE8F09F70B53F
:100A4000040003D094F8200010B104E0012070BD30
:100A5000204600F081F82068016821F00201016061
:100A600000F0AEFB0546052604E000F0A9FB401BA4
:100A70000A2811D8206840688007F6D420680168E9
:100A800041F00101016000F09BFB05460BE000F026
:100A900097FB401B0A2806D9606A40F40030606268
:100AA00084F82060D2E720684068C007EFD0207E3D
:100AB0000128206801683DD021F080010160607E3E
:100AC00001282068016838D021F040010160A07E33
:100AD00001282068016833D021F020010160E07E08
:100AE0000128206801682ED041F010010160207FAC
:100AF00001282068016829D021F008010160607F89
:100B000001282068016824D021F004010160D4E9A3
:100B100002010843D4E90412114308436168491EE5
:100B200008432168C86100206062012084F8200029
:100B3000002070BD41F08001C0E741F04001C5E7F1
:100B400041F02001CAE721F01001CFE741F0080190
:100B5000D4E741F00401D9E710B586B0044614216A
:100B60006846FFF765FB18492068884229D1174875
:100B70000021026842F000720260006800F000701C
:100B8000059012481038026842F0020202600068C4
:100B900000F0020005904FF4407000900220CDE973
:100BA000010103200390092004906946084800F0E1
:100BB0002FFA00220221142000F070FB142000F014
:100BC0005FFB06B010BD00000064004040380240EA
:100BD0000004024010B504460068C16821F0080115
:100BE000C1602068C16841F02001C16000F0E8FAEE
:100BF0002068C16841F02001C16000F0E1FA20687E
:100C0000C16841F02001C16010BD0000074A10B565
:100C1000054B0021A2F18000FFF79FFD0249012052
:100C20000C39487010BD00000C000020B8000020F6
:100C3000704770477047000070B5044690F8200078
:100C4000012804D0606A40F40020606218E00220AD
:100C500084F820002068016821F00101016000F0A3
:100C6000AFFA05460EE000BF00F0AAFA401B0A28C2
:100C700008D9606A40F400306062052084F82000E2
:100C8000012070BD20684068C007EDD1606270BD72
:100C900070B5044690F82000022804D0606A40F441
:100CA0008010606214E02068016841F00101016079
:100CB00000F086FA05460DE000F082FA401B0A2893
:100CC00008D9606A40F400306062052084F8200092
:100CD000012070BD20684068C007EDD02068016821
:100CE00021F002010160012084F82000002070BD85
:100CF000704770477047704770477047704790F86B
:100D00003510022903D0802141650120704705215B
:100D100080F835100068016821F0010101600020B1
:100D2000704700002DE9F84304464FF00009CDF864
:100D3000009063484FF41651A56D0068B0FBF1F7C1
:100D40002E6894F85C10082000FA01F131420FD0AF
:100D500021680A6852070BD50A6822F004020A606B
:100D600094F85C108840A860606D40F001006065F8
:100D700094F85C104FF0010808FA01F0304208D0F6
:100D800021684969090604D5A860606D40F0020039
:100D9000606594F85C1004208840304208D02168D7
:100DA0000968890704D5A860606D40F0040060659B
:100DB00094F85C1010208840304218D021680968EF
:100DC000090714D5A86020680168490304D50068A4
:100DD000000308D5A16C07E00168C90503D40168C8
:100DE00021F008010160216C09B12046884794F880
:100DF0005C1020208840304231D021680968C90643
:100E00002DD5A86094F8350005282068016806D023
:100E1000490347D5006800031DD4616C1CE021F034
:100E2000160101602068416921F080014161206C58
:100E300008B9A06C20B12068016821F008010160A8
:100E400094F85C103F208840A86084F8349084F8BF
:100E50003580216D1FE0E16B09B120468847606D48
:100E600000282BD0606DC00714D0052084F8350011
:100E70002068016821F0010101600098401C009089
:100E8000B84203D820680068C007F6D184F83490CF
:100E900084F83580E16C002910D001B02046BDE80F
:100EA000F04308470168C905D5D4016821F0100155
:100EB000016084F8349084F83580CCE7BDE8F8838D
:100EC000300000202DE9F041044600F079F9064693
:100ED0005CB1002584F83450022084F83500206885
:100EE000016821F0010101600DE00120BDE8F08101
:100EF00000F066F9801B052805D9202060650320D5
:100F000084F83500F2E720680068C007F0D1226855
:100F1000116820480140D4E901031843D4E903369D
:100F20003343184363691843A3691843E3691843BB
:100F3000236A18430843616A042903D1D4E90B13D7
:100F400019430843106020684069666A20F0070171
:100F500030460E43012704280CD1A06A0643E06AFC
:100F600040B12046FFF7BCFA20B14020606584F80C
:100F70003570BAE7206846612046FFF79DFA94F87D
:100F80005C203F2191408160656584F835700020C8
:100F9000ACE700003F8010F02DE9F0410446866D7B
:100FA00090F83400002501280DD0012084F8340089
:100FB00094F835700020012F07D084F83400022502
:100FC0002846BDE8F0810220FBE7022784F835704F
:100FD00060652046FFF7AEFA94F85C103F20884029
:100FE000B0602068016841F0160101602068416925
:100FF00041F080014161206C20B12068016841F01E
:10100000080101602068016841F001010160D7E733
:101010002DE9F84FDFF87CB100224FF001084FF0C6
:10102000030A4FF00F090BF1040E00BF0B6808FA1A
:1010300002F42340A3426ED14D68022D01D0122D3F
:101040000ED1D50800EB850CDCF820505607F70EC2
:1010500009FA07F6B5430E69BE402E43CCF820606E
:10106000066855000F790AFA05FC07F0030726EA1F
:101070000C06AF40374307604E68012E05D0022EA4
:1010800003D0112E01D0122E0ED18668CF6826EA29
:101090000C06AF40374387604668A6430C79C4F31B
:1010A0000014944034434460C6688C6826EA0C06F9
:1010B000AC403443C4604C68E40065D5364C2568C8
:1010C00045F480452560246822F0030504F480443B
:1010D0000094324C2E19D6F8084895072F0F09FABC
:1010E00007F5AC432E4DA84201D1002524E02D4D3B
:1010F000A84201D101251FE02B4DA84201D10225B4
:101100001AE02A4DA84201D1032515E0284DA84236
:1011100002D1042510E037E0264DA84201D1052573
:101120000AE0254DA84201D1062505E0234DA8423D
:1011300001D1072500E00825BD402543C6F8085821
:10114000DBF800405D464E689C43F60300D51C4327
:101150002C60DEF8004075464E689C43B60300D50F
:101160001C432C600B4D08352C684E689C43F602DE
:1011700000D51C432C60074D0C352C684E689C43F1
:10118000B60200D51C432C60521C102AFFF44EAF4F
:10119000BDE8F88F003C0140443802400030014077
:1011A000000002400004024000080240000C02401F
:1011B000001002400014024000180240001C0240CF
:1011C00001488068704700002400002002488168C0
:1011D0000278114481607047240000200B4810B54C
:1011E000016841F400710160016841F480610160AF
:1011F000016841F480710160032000F06FF8002065
:1012000000F006F800F024F8002010BD003C024079
:1012100070B50D4D04464FF47A712878B1FBF0F0AB
:101220000A490968B1FBF0F000F0E0FA48B9102C67
:1012300007D200222146501E00F030F800206C60DA
:1012400070BD012070BD000024000020300000208F
:101250000A4808B5016841F480410160006800F463
:10126000804000900548001F016841F080510160F6
:10127000006800F08050009008BD00004438024033
:10128000002809DB00F01F02012191404009800085
:1012900000F1E020C0F8001170470000F0B40E4BE0
:1012A0001B680C46C3F30223C3F10705042D00D9C4
:1012B0000425191D072901D2002300E0DB1E0126A9
:1012C00006FA05F1491E214099409E40761E1640BF
:1012D0003143F0BC00F0D0BF0CED00E0064900F057
:1012E000070208684FF6FF03184040EA0220034A4D
:1012F00010430860704700000CED00E00000FA05A4
:101300002DE9F0470E46050065D0DFF81481D8F8C6
:101310000000F7B200F00F00B04207D288F800706A
:10132000D8F8000000F00F00B04254D128683D4CBE
:10133000810712D5400703D5206840F4E0502060B3
:101340002878000703D5206840F4604020602068BA
:10135000A96820F0F000084320602878C0072DD04D
:10136000304968680839012812D0022813D00328B0
:1013700011D00968890700292DDA216821F00301BD
:1013800001432160FFF71CFF814641F2883A0EE0DD
:1013900009688903EFE709688901ECE7FFF710FFA7
:1013A000A0EB0901514502D90320BDE8F087206870
:1013B000696800F00C00B0EB810FEFD1D8F8001095
:1013C000404601F00F01B14207D90770006800F0F4
:1013D0000F00B04201D00120E7E72878400705D58B
:1013E0002068E96820F4E05008432060287800076E
:1013F00006D52068296920F4604040EAC1002060D9
:1014000000F036F82168084AC1F30311515CC84066
:10141000064908600020FFF7FBFE0020C5E700003A
:10142000003C024008380240C42800083000002078
:101430000448054900680968044AC1F38221515CE7
:10144000C84070473000002008380240D428000807
:101450000448054900680968044AC1F34231515CF7
:10146000C84070473000002008380240D4280008E7
:10147000154810B5006810F00C02144813D0411044
:10148000042A0FD0082A0ED10F4C241F226823688B
:1014900002F03F025B0207D52068C0F38810A0FB72
:1014A000010106E0084610BD2168C1F38811A1FBC7
:1014B00000010023FEF784FE2168C1F30141491CAD
:1014C0004900B0FBF1F010BD083802400024F400E0
:1014D0002DE9F84F050076D02878DFF8F8B2BE4C39
:1014E000C00749D0DBF800105846C1F3810101293B
:1014F00008D00068C0F3810002280AD1201D0068CE
:10150000400206D52068800336D568680028E2D0FE
:1015100032E06868B0F5803F10D0B0F5A02F2068A9
:1015200010D020F480302060206820F480202060DB
:101530006868A0B1FFF744FE06460CE0206840F45E
:101540008030F4E740F480202060F7E7FFF738FEB2
:10155000801B642873D820688003F7D50CE0FFF760
:101560002FFE064605E000BFFFF72AFE801B642819
:10157000F0D820688003F7D42878DFF860828007ED
:101580004FF000093ED5DBF80010584611F00C0F63
:1015900009D00068C0F3810002280BD18D48001FDC
:1015A0000068400206D42068800715D5E868012845
:1015B00009D111E0E868B8B10120C8F80000FFF7D0
:1015C000FFFD064605E002E1FFF7FAFD801B022859
:1015D000C0D820688007F7D52068296920F0F80076
:1015E00040EAC10020600DE0C8F80090FFF7E8FD78
:1015F000064604E0FFF7E4FD801B02281FD82068A0
:101600008007F7D42878000722D5724E744869699C
:101610006C3671B101210160FFF7D2FD074604E08D
:10162000FFF7CEFDC01B022809D830688007F7D528
:101630000EE0C0F80090FFF7C3FD074605E083E029
:10164000FFF7BEFDC01B02287ED830688007F7D4A4
:101650002878400768D5DFF87CA100270AF1380A0E
:10166000DAF80000C0000BD4DAF8001041F0805125
:10167000CAF80010DAF80000012700F0805000904E
:10168000584E3068C00510D4306840F48070306027
:10169000FFF796FD009005E0FFF792FD0099401AD4
:1016A000022851D83068C005F6D54A4EA868683679
:1016B00001280FD00528306810D020F001003060DC
:1016C000306820F004003060A868B8B1FFF778FDFA
:1016D00000900FE0306840F00100F4E740F00400B3
:1016E0003060F7E7FFF76CFD0099411A41F288304E
:1016F000814264D830688007F4D50EE0FFF760FDC2
:10170000009007E0FFF75CFD0099411A41F2883034
:10171000814254D830688007F4D42FB1DAF8001031
:1017200021F08051CAF80010A869C0B3DBF800109E
:10173000C1F3810102294AD00228484607D0C8F8DF
:101740006000FFF73DFD00E039E005463AE047461E
:10175000C8F86000FFF734FD064604E0FFF730FDEF
:10176000801B02282BD820688001F7D4D5E9070117
:101770000843A96A1C4A490802EB01416A6A41EA26
:101780008211084395F82C1040EA01611148001FAE
:10179000016001203866FFF713FD054605E014E0FF
:1017A000FFF70EFD401B022809D820688001F7D5FD
:1017B0000BE000BFFFF704FD401B022802D9032005
:1017C000BDE8F88F20688001F4D40020F8E70120FC
:1017D000F6E70000083802400038024000004742A7
:1017E000800E4742007000400000FFFF10B5401E11
:1017F000B0F1807F01D3012010BD4FF0E024606183
:101800000F21601700F038FD0020A0610720206143
:10181000002010BD7047000070B5026804461068D3
:10182000D168536910F00F0F50D003F0010501F497
:10183000907635435DD0C20705D0CA0503D5E26B6B
:1018400042F00102E263420705D5DA0703D0E26BFA
:1018500042F00202E263820705D5DA0703D0E26BA9
:1018600042F00402E263020705D5DA0703D0E26B17
:1018700042F00802E263E26B002A33D0800604D50E
:10188000880602D5204600F007FB20684069E16B1E
:10189000C0F38010090700D428B3204600F0E5FA11
:1018A0002068416949061AD5416921F0400141612A
:1018B000606BA0B11B490165606BFFF720FA00283F
:1018C00010D0606B016DBDE870400847830610D5ED
:1018D0008B060ED52046BDE8704000F0DDBA2046EC
:1018E000FFF798FF70BD2046FFF794FF0020E063EC
:1018F00070BD030606D50B0604D52046BDE8704032
:1019000000F06CBC4006F3D54806F1D5D1682046FE
:1019100021F04001D160202184F8391000F01EF937
:1019200070BD0000D91D000870B5040004D094F803
:101930003900002510B106E0012070BD84F8385050
:10194000204600F023F8242084F839002068C1687C
:1019500021F40051C160204600F0EAFA20680169D4
:1019600021F4904101612068416921F02A0141611F
:101970002068C16841F40051C160E563202084F80B
:10198000390084F83A00002070BD000070B586B0C0
:10199000064614216846FEF74BFC2449306888420D
:1019A00041D123480025016841F4003101600068FD
:1019B00000F4003005901E481038016841F0010124
:1019C00001600068694600F0010005900C2000905D
:1019D0000220019001200290032003900720049030
:1019E0001448FFF715FB154C134820604FF00060BA
:1019F00060604020C4E902050001C4E90405A56156
:101A0000E561256220466562FFF75CFA08B1FEF7E2
:101A1000A6FD3463002201212620A663FFF73EFCC9
:101A20002620FFF72DFC06B070BD000000440040EA
:101A30004038024000000240A0600240180100202F
:101A400090F83A30202B22D1F9B1F2B190F8383029
:101A5000012B1CD081628285C2850021C1632222B4
:101A600080F83A2080F838100168CA6842F4807221
:101A7000CA6001684A6942F001024A610068C168AF
:101A800041F02001C1600020704701207047022012
:101A90007047000010B5104C20784D2804D1607DAF
:101AA0003B2811D100F0BEF82078462804D1607D93
:101AB0003B2809D100F08AF82078502804D1607DB5
:101AC0003B2801D100F06CF80349BDE81040162214
:101AD000A1F17400FFF7B4BFD400002070B5044634
:101AE00090F83900202830D169B362B394F83800F7
:101AF00001282AD0012084F838002162A284E284DF
:101B00000025E563212084F83900236B1048D86351
:101B1000236B10481864236B0F48D864206B13465E
:101B200005652668206B321DFFF736FA21686FF0D5
:101B30004000086084F838502068416941F0800115
:101B40004161002070BD012070BD022070BD000009
:101B5000331E0008611E0008E91D00087047704729
:101B6000FEE700000B480A494FF4402201600221C1
:101B7000416000218160C0E90312D2004261017618
:101B800041768176C17601774177FEF758BF000034
:101B90000064004038000020FEE7704770470000F6
:101BA00008B5032207496846FEF74DFB6846FEF775
:101BB0008EFB4FF4FA6191FBF0F103484171012172
:101BC000017108BDD9000020000000202DE9FC476C
:101BD000124D0126124F687844281CD0432818D192
:101BE0000024A14607F1140804EB44004119032224
:101BF0006846491DFEF727FB8DF80390102201A9C6
:101C00006846FEF72CFB48F82400641C042CEBDB30
:101C1000BE70BDE8FC87FE70FBE70000D40000202A
:101C2000000000202DE9FC41134D0322691C684689
:101C3000FEF709FB102201A96846FEF710FB05F12B
:101C4000360600243080274605EB44010222684610
:101C5000491DFEF7F8FA8DF80270102201A96846B6
:101C6000FEF7FDFA3119641C8870082CECDB03497F
:101C700001200870BDE8FC81D40000200000002095
:101C80007047000030B5104A87B0044610790DF156
:101C90000C0CD579937951798CE82B005078D37856
:101CA00091788DE80B000948137809A10268204655
:101CB00000F0CEFA07B021460448BDE830401822B3
:101CC0005838FFF70BBF00000C000020B8000020C0
:101CD0004D2533782C253032782530327825303236
:101CE00078253032782530327825303278253032F8
:101CF00078253032783B0D0A00000000FFF766BA05
:101D000030B593B030216846FEF792FA14210CA842
:101D1000FEF78EFA19480025016841F080510160F4
:101D2000006800F0805011901548016841F480412E
:101D300001600068022400F48040119001200090AE
:101D4000000401908001CDE9064008AA0420A821E2
:101D500082E813000B906846FFF7BAFB0CA90F202E
:101D600081E831004FF4A0500F90E002109005215F
:101D70000CA8FFF7C5FA13B030BD00004038024090
:101D8000007000401048016841F4700101600F4884
:101D9000016841F0010101600C4A00210832116024
:101DA00002680B4B1A400260031D0A4A1A6002685F
:101DB00022F48022026005480C3001600249580676
:101DC000803908607047000088ED00E0003802406C
:101DD000FFFFF6FE1030002410B5806B0021C18596
:101DE000C184FFF717FD10BD70B5846B2068406992
:101DF00094F83910C0F3C0100025212904D118B17E
:101E0000E584204600F03FF82068406994F83A10D5
:101E1000C0F38010222904D118B1E585204600F0D6
:101E200024F8E06B40F01000E0632046FFF7F2FC7E
:101E300070BD10B50146806B09680968C9050CD4EE
:101E40000021C18401684A6922F080024A61006869
:101E5000C16841F04001C16010BDFFF77FFE10BDB9
:101E600010B5806BFFF77BFE10BD0168CA6822F4D5
:101E70009072CA6001684A6922F001024A61202119
:101E800080F83A1070470168CA6822F0C002CA6040
:101E9000202180F83910704710B590F83A102229A7
:101EA00001D0022010BD8168B1F5805F11D00169B9
:101EB000002901681FD0496801F07F03816A4A1C2C
:101EC00082620B70C18D491E0904090CC18518D0AE
:101ED0002BE00269816A002A0268526805D0D2B2FA
:101EE0000A80816A491C8162ECE7C2F308020A8019
:101EF000816A891CF7E74A68816A4B1C83620A7011
:101F0000E0E70168CA6822F02002CA600168CA6876
:101F100022F48072CA6001684A6922F001024A61B3
:101F2000202180F83A10FFF7B5FD002010BD000019
:101F30002DE9F041044600680169E26821F440514E
:101F4000114301612169A068E26908436169114395
:101F500022680843D16849F20C6399430143D16078
:101F600020684169A26921F4407111434161E2692D
:101F70006425B2F5004F9748974922684FF0320820
:101F80003FD08A4201D082427CD1FFF761FA00EB58
:101F9000C00101EB001061688900B0FBF1F6FFF7AA
:101FA00057FA00EBC00101EB001061688900B0FB3B
:101FB000F1F0B0FBF5F06FF01801484306EB80013B
:101FC00008EB0110B0FBF5F000F0F006FFF740FA67
:101FD00000EBC00101EB001061688900B0FBF1F07B
:101FE000B0FBF5F006EB0016FFF732FA00EBC0018C
:101FF00001EB001061688900B0FBF1F7FFF728FAE8
:10200000D2E08A4201D082423DD1FFF721FA00EBB3
:10201000C00101EB001061684900B0FBF1F0B0FBBA
:10202000F5F00601FFF714FA00EBC00101EB001018
:1020300061684900B0FBF1F7FFF70AFA00EBC00155
:1020400001EB001061684900B0FBF1F0B0FBF5F066
:102050006FF01801484307EB800108EBC100B0FBAB
:10206000F5F000F0F80006EB4006FFF7F1F900EBA1
:10207000C00101EB001061684900B0FBF1F7FFF708
:10208000E7F93CE055E0FFF7D3F900EBC00101EBC5
:10209000001061684900B0FBF1F0B0FBF5F00601FB
:1020A000FFF7C6F900EBC00101EB001061684900C1
:1020B000B0FBF1F7FFF7BCF900EBC00101EB00103A
:1020C00061684900B0FBF1F0B0FBF5F06FF018016A
:1020D000484307EB800108EBC100B0FBF5F000F0CE
:1020E000F80006EB4006FFF7A3F900EBC00101EB97
:1020F000001061684900B0FBF1F7FFF799F900EBB8
:10210000C00101EB001061684900B0FBF1F0B0FBC9
:10211000F5F06FF01801484307EB800108EBC100B0
:10212000B0FBF5F000F00700216830448860BDE89E
:10213000F081FFF77DF900EBC00101EB0010616851
:102140008900B0FBF1F6FFF773F900EBC00101EB7A
:10215000001061688900B0FBF1F0B0FBF5F06FF0A2
:102160001801484306EB800108EB0110B0FBF5F0C5
:1021700000F0F006FFF75CF900EBC00101EB001086
:1021800061688900B0FBF1F0B0FBF5F006EB0016DA
:10219000FFF74EF900EBC00101EB00106168890008
:1021A000B0FBF1F7FFF744F900EBC00101EB0010C1
:1021B00061688900B0FBF1F0B0FBF5F06FF0180139
:1021C000484307EB800108EB0110B0FBF5F000F08D
:1021D0000F00A9E7001401400010014090F83910E9
:1021E000212901D0022070478168B1F5805F016A22
:1021F0000BD04A1C0262026809785160C18C491EEA
:102200000904090CC1840ED017E009880268C1F3E3
:102210000801516001690029016A02D0491C01626C
:10222000ECE7891CFBE70168CA6822F08002CA60FB
:102230000068C16841F04001C160002070470000A3
:102240000148FFF7E9BA000060000020FEE7000047
:102250000FB4084B10B504A902AA039800F030F897
:10226000044602A9002000F05CFA204610BC5DF88C
:1022700014FB0000232700080907090E002804DBCF
:1022800000F1E02080F80014704700F00F0000F12A
:10229000E02080F8141D704700487047340000208B
:1022A00002E008C8121F08C1002AFAD1704770471F
:1022B000002001E001C1121F002AFBD1704700007D
:1022C0002DE9FF4F8DB00F460546002606E0252874
:1022D0000BD0DDE90F1290476D1C761C2878002882
:1022E000F5D111B03046BDE8F08F0024A246A146DA
:1022F0000122EC4900E0044315F8013F203B02FABB
:1023000003F00842F7D128782A2810D06FF02F0266
:102310002878A0F13001092914D80AEB8A0102EBD0
:10232000410144F0020400EB010A6D1CF0E701CF0B
:102330005FEA000A03D544F40054CAF1000A44F0ED
:1023400002046D1C28782E2817D115F8010F44F0CF
:1023500004042A280ED06FF02F022878A0F1300153
:1023600009290AD809EB890102EB410100EB0109B7
:102370006D1CF2E757F8049B6D1C28786C280FD071
:1023800006DC4C2817D068280DD06A2814D104E048
:10239000742810D07A280FD10DE044F400140AE01C
:1023A00044F4801401E044F440146978814202D17D
:1023B00004F580146D1C6D1C2A786E2A1FD00CDC6D
:1023C000632A31D004DC002A8BD0582A11D1A3E033
:1023D000642A68D0692A0CD165E0732A2ED004DC07
:1023E0006F2A73D0702A04D19BE0752A6FD0782AA7
:1023F0006ED01046DDE90F129047761C50E1C4F311
:102400000250022806D0032809D0042801CF09D0A1
:10241000066045E101CFF117C0E9006140E101CF5D
:1024200006803DE106703BE117F8040B8DF80000D3
:1024300000208DF80100EB46012003E057F804BBB3
:102440004FF0FF3061074FF0000102D40DE008F1BA
:102450000101884649450FDA8045F8DB1BF8081072
:102460000029F4D108E008F1010188468142FADB35
:102470001BF808100029F6D1DDE90F23AAEB0800AC
:102480008146214600F036F9304400EB080604E0AE
:10249000DDE90F121BF8010B9047B8F10108F7D2E4
:1024A00021464846F7E00A21C4F302534FF0000BDF
:1024B0000891022B04D001CFC117032B09D00AE0E9
:1024C000FF1D27F00707F7E8020108E032E01FE0F0
:1024D00020E000B2C117042B01D140B2C117031E86
:1024E00071F1000307DA4FF0000CD0EB0C006CEB3D
:1024F00001012D2302E0230504D52B238DF8243080
:10250000012303E0E30701D02023F7E7984658E0D2
:102510000A2110E010210EE010204FF0000B08906F
:102520000CE010214FF0000B44F004044FF00809B8
:10253000089103E008214FF0000B0891C4F3025307
:10254000022B04D001CF0021032B06D006E0FF1D93
:1025500027F00707F7E8020103E080B2042B00D15F
:10256000C0B24FF0000823072BD5702A07D0DDF842
:1025700020C08CF0100C5CEA0B0C05D00EE0402360
:102580008DF82430012308E050EA010306D03023FF
:102590008DF824308DF8252002239846DDF820C0E0
:1025A0008CF0080C5CEA0B0C0BD150EA010301D152
:1025B000630706D530238DF824304FF00108A9F1C8
:1025C0000109582A04D038A20B9208AA0A920BE0FB
:1025D0003AA2F9E75B46089AFDF7F2FD0B9B9B5C7C
:1025E0000A9A521E0A92137050EA0102F2D10A9816
:1025F000ADEB000000F1200B600702D524F480341D
:1026000001E04FF00109D94502DDA9EB0B0000E024
:10261000002000EB0B0141440890AAEB010AE00303
:1026200006D4DDE90F232146504600F063F8064446
:102630004FF0000908E009A911F80900DDE90F12BF
:10264000904709F10109761CC145F4DBE0030CD584
:10265000DDE90F232146504600F04CF8064404E023
:10266000DDE90F1230209047761C0899481E08902B
:102670000029F5DC08E00A980A990078491C0A91BB
:10268000DDE90F129047761CBBF10001ABF1010BA5
:10269000F1DC21465046DDE90F2300F019F806442D
:1026A0006D1C1BE6092801003031323334353637D2
:1026B000383961626364656600000000303132338E
:1026C000343536373839414243444546000000002E
:1026D0002DE9F041044600251E461746880404D41F
:1026E00005E039462020B0476D1C641EF9D5284608
:1026F000BDE8F0812DE9F041044600251E469046D4
:10270000C80301D5302700E02027880404D505E060
:1027100041463846B0476D1C641EF9D52846BDE8D1
:10272000F0810A68531C0B60107070475F4E08B54B
:1027300000250820B560C6E90350FEF74FFDFFF7FE
:10274000DFFA5B48016841F080010160016801F037
:1027500080010091016841F001010160016801F010
:1027600001010091016841F002010160016801F07E
:1027700002010091016841F400110160006800222B
:1027800000F40010009011461120FEF787FD112083
:10279000FEF776FDFFF7E6F9A6F140004549016036
:1027A0004FF4E131C0E901150C21C560C0E90451C5
:1027B0008561C561FFF7B8F83F48FDF743FEFDF7B7
:1027C0005FFE0221A6F16800FDF7CAFE0421A6F112
:1027D0006800FDF7C5FEA6F16800FEF72DFA06F1C8
:1027E00034011622A1F17400FFF72AF9324C143C8F
:1027F000207860B12D4A304B6A322C4932F8020BF6
:1028000030600C3BA1F16800FDF7BCFE25706078DC
:1028100020B1657025485230FFF734FAA07848B1EE
:1028200000210846FDF7FCFD2348FDF70BFE22487A
:1028300012380570E07840B100210120FDF7F0FD6D
:1028400001210020FDF7ECFDE57020790028CFD0B4
:1028500016486838FEF71CFA144868380168CA69D7
:10286000CA61CA6922F00102CA610168CA6922F01C
:102870000202CA610168CA6922F00402CA610168E1
:10288000CA6922F00802CA610168CA6922F010020E
:10289000CA610168C8696279521E1043C861034861
:1028A0006838FEF7C9F92571A2E70000A0000020F2
:1028B000303802400044004014000020000610168A
:1028C00000061016000000000000000001020304D2
:1028D0000607080900000000010203040040404010
:1028E00040404040404041414141414040404040E3
:1028F000404040404040404040404040400502028F
:10290000020202020202020202020202022020204D
:1029100020202020202020020202020202029090A9
:1029200090909090101010101010101010101010A7
:1029300010101010101010100202020202028888FB
:102940008888888808080808080808080808080807
:1029500008080808080808080202020240000000EF
:10296000DD2800088429000800000020380000004D
:10297000A0220008BC290008380000204005000003
:10298000B02200080000000000000000000000006D
:102990000000000000000000000300000103000030
:1029A000020300000303000001000000100000000B
:0C29B000000000000024F4000000000003
:040000050800018965
:00000001FF
